{
  "contractName": "ProductStore",
  "abi": [
    {
      "inputs": [],
      "payable": false,
      "stateMutability": "nonpayable",
      "type": "constructor"
    },
    {
      "constant": true,
      "inputs": [],
      "name": "productIndex",
      "outputs": [
        {
          "internalType": "uint256",
          "name": "",
          "type": "uint256"
        }
      ],
      "payable": false,
      "stateMutability": "view",
      "type": "function"
    },
    {
      "constant": false,
      "inputs": [
        {
          "internalType": "string",
          "name": "_name",
          "type": "string"
        },
        {
          "internalType": "string",
          "name": "_category",
          "type": "string"
        },
        {
          "internalType": "string",
          "name": "_imageLink",
          "type": "string"
        },
        {
          "internalType": "string",
          "name": "_descLink",
          "type": "string"
        },
        {
          "internalType": "uint256",
          "name": "_auctionStartTime",
          "type": "uint256"
        },
        {
          "internalType": "uint256",
          "name": "_auctionEndTime",
          "type": "uint256"
        },
        {
          "internalType": "uint256",
          "name": "_startPrice",
          "type": "uint256"
        },
        {
          "internalType": "uint256",
          "name": "_productCondition",
          "type": "uint256"
        }
      ],
      "name": "addProductToStore",
      "outputs": [],
      "payable": false,
      "stateMutability": "nonpayable",
      "type": "function"
    },
    {
      "constant": true,
      "inputs": [
        {
          "internalType": "uint256",
          "name": "_productId",
          "type": "uint256"
        }
      ],
      "name": "getProduct",
      "outputs": [
        {
          "internalType": "uint256",
          "name": "",
          "type": "uint256"
        },
        {
          "internalType": "string",
          "name": "",
          "type": "string"
        },
        {
          "internalType": "string",
          "name": "",
          "type": "string"
        },
        {
          "internalType": "string",
          "name": "",
          "type": "string"
        },
        {
          "internalType": "string",
          "name": "",
          "type": "string"
        },
        {
          "internalType": "uint256",
          "name": "",
          "type": "uint256"
        },
        {
          "internalType": "uint256",
          "name": "",
          "type": "uint256"
        },
        {
          "internalType": "uint256",
          "name": "",
          "type": "uint256"
        },
        {
          "internalType": "enum ProductStore.ProductStatus",
          "name": "",
          "type": "uint8"
        },
        {
          "internalType": "enum ProductStore.ProductCondition",
          "name": "",
          "type": "uint8"
        }
      ],
      "payable": false,
      "stateMutability": "view",
      "type": "function"
    },
    {
      "constant": false,
      "inputs": [
        {
          "internalType": "uint256",
          "name": "_productId",
          "type": "uint256"
        },
        {
          "internalType": "bytes32",
          "name": "_bid",
          "type": "bytes32"
        }
      ],
      "name": "bid",
      "outputs": [
        {
          "internalType": "bool",
          "name": "",
          "type": "bool"
        }
      ],
      "payable": true,
      "stateMutability": "payable",
      "type": "function"
    },
    {
      "constant": false,
      "inputs": [
        {
          "internalType": "uint256",
          "name": "_productId",
          "type": "uint256"
        },
        {
          "internalType": "string",
          "name": "_amount",
          "type": "string"
        },
        {
          "internalType": "string",
          "name": "_secret",
          "type": "string"
        }
      ],
      "name": "revealBid",
      "outputs": [],
      "payable": false,
      "stateMutability": "nonpayable",
      "type": "function"
    },
    {
      "constant": true,
      "inputs": [
        {
          "internalType": "uint256",
          "name": "_productId",
          "type": "uint256"
        }
      ],
      "name": "highetBidderInfo",
      "outputs": [
        {
          "internalType": "address",
          "name": "",
          "type": "address"
        },
        {
          "internalType": "uint256",
          "name": "",
          "type": "uint256"
        },
        {
          "internalType": "uint256",
          "name": "",
          "type": "uint256"
        }
      ],
      "payable": false,
      "stateMutability": "view",
      "type": "function"
    },
    {
      "constant": true,
      "inputs": [
        {
          "internalType": "uint256",
          "name": "_productId",
          "type": "uint256"
        }
      ],
      "name": "totalBids",
      "outputs": [
        {
          "internalType": "uint256",
          "name": "",
          "type": "uint256"
        }
      ],
      "payable": false,
      "stateMutability": "view",
      "type": "function"
    }
  ],
  "bytecode": "0x608060405234801561001057600080fd5b5060008081905550612346806100276000396000f3fe6080604052600436106100705760003560e01c8063b9db15b41161004e578063b9db15b414610403578063c897d5a614610641578063ea1591bb1461066c578063f85f196e146106bc57610070565b806328e3d190146100755780633abfe2c4146100c4578063a508b9551461014d575b600080fd5b34801561008157600080fd5b506100ae6004803603602081101561009857600080fd5b8101908080359060200190929190505050610825565b6040518082815260200191505060405180910390f35b3480156100d057600080fd5b506100fd600480360360208110156100e757600080fd5b8101908080359060200190929190505050610c4c565b604051808473ffffffffffffffffffffffffffffffffffffffff1673ffffffffffffffffffffffffffffffffffffffff168152602001838152602001828152602001935050505060405180910390f35b34801561015957600080fd5b50610401600480360361010081101561017157600080fd5b810190808035906020019064010000000081111561018e57600080fd5b8201836020820111156101a057600080fd5b803590602001918460018302840111640100000000831117156101c257600080fd5b91908080601f016020809104026020016040519081016040528093929190818152602001838380828437600081840152601f19601f8201169050808301925050505050505091929192908035906020019064010000000081111561022557600080fd5b82018360208201111561023757600080fd5b8035906020019184600183028401116401000000008311171561025957600080fd5b91908080601f016020809104026020016040519081016040528093929190818152602001838380828437600081840152601f19601f820116905080830192505050505050509192919290803590602001906401000000008111156102bc57600080fd5b8201836020820111156102ce57600080fd5b803590602001918460018302840111640100000000831117156102f057600080fd5b91908080601f016020809104026020016040519081016040528093929190818152602001838380828437600081840152601f19601f8201169050808301925050505050505091929192908035906020019064010000000081111561035357600080fd5b82018360208201111561036557600080fd5b8035906020019184600183028401116401000000008311171561038757600080fd5b91908080601f016020809104026020016040519081016040528093929190818152602001838380828437600081840152601f19601f8201169050808301925050505050505091929192908035906020019092919080359060200190929190803590602001909291908035906020019092919050505061108b565b005b34801561040f57600080fd5b5061043c6004803603602081101561042657600080fd5b81019080803590602001909291905050506113a5565b604051808b8152602001806020018060200180602001806020018a815260200189815260200188815260200187600281111561047457fe5b60ff16815260200186600181111561048857fe5b60ff16815260200185810385528e818151815260200191508051906020019080838360005b838110156104c85780820151818401526020810190506104ad565b50505050905090810190601f1680156104f55780820380516001836020036101000a031916815260200191505b5085810384528d818151815260200191508051906020019080838360005b8381101561052e578082015181840152602081019050610513565b50505050905090810190601f16801561055b5780820380516001836020036101000a031916815260200191505b5085810383528c818151815260200191508051906020019080838360005b83811015610594578082015181840152602081019050610579565b50505050905090810190601f1680156105c15780820380516001836020036101000a031916815260200191505b5085810382528b818151815260200191508051906020019080838360005b838110156105fa5780820151818401526020810190506105df565b50505050905090810190601f1680156106275780820380516001836020036101000a031916815260200191505b509e50505050505050505050505050505060405180910390f35b34801561064d57600080fd5b5061065661182e565b6040518082815260200191505060405180910390f35b6106a26004803603604081101561068257600080fd5b810190808035906020019092919080359060200190929190505050611834565b604051808215151515815260200191505060405180910390f35b3480156106c857600080fd5b50610823600480360360608110156106df57600080fd5b81019080803590602001909291908035906020019064010000000081111561070657600080fd5b82018360208201111561071857600080fd5b8035906020019184600183028401116401000000008311171561073a57600080fd5b91908080601f016020809104026020016040519081016040528093929190818152602001838380828437600081840152601f19601f8201169050808301925050505050505091929192908035906020019064010000000081111561079d57600080fd5b8201836020820111156107af57600080fd5b803590602001918460018302840111640100000000831117156107d157600080fd5b91908080601f016020809104026020016040519081016040528093929190818152602001838380828437600081840152601f19601f820116905080830192505050505050509192919290505050611aae565b005b600061082f61215a565b600260006001600086815260200190815260200160002060009054906101000a900473ffffffffffffffffffffffffffffffffffffffff1673ffffffffffffffffffffffffffffffffffffffff1673ffffffffffffffffffffffffffffffffffffffff1681526020019081526020016000206000848152602001908152602001600020604051806101c001604052908160008201548152602001600182018054600181600116156101000203166002900480601f0160208091040260200160405190810160405280929190818152602001828054600181600116156101000203166002900480156109615780601f1061093657610100808354040283529160200191610961565b820191906000526020600020905b81548152906001019060200180831161094457829003601f168201915b50505050508152602001600282018054600181600116156101000203166002900480601f016020809104026020016040519081016040528092919081815260200182805460018160011615610100020316600290048015610a035780601f106109d857610100808354040283529160200191610a03565b820191906000526020600020905b8154815290600101906020018083116109e657829003601f168201915b50505050508152602001600382018054600181600116156101000203166002900480601f016020809104026020016040519081016040528092919081815260200182805460018160011615610100020316600290048015610aa55780601f10610a7a57610100808354040283529160200191610aa5565b820191906000526020600020905b815481529060010190602001808311610a8857829003601f168201915b50505050508152602001600482018054600181600116156101000203166002900480601f016020809104026020016040519081016040528092919081815260200182805460018160011615610100020316600290048015610b475780601f10610b1c57610100808354040283529160200191610b47565b820191906000526020600020905b815481529060010190602001808311610b2a57829003601f168201915b505050505081526020016005820154815260200160068201548152602001600782015481526020016008820160009054906101000a900473ffffffffffffffffffffffffffffffffffffffff1673ffffffffffffffffffffffffffffffffffffffff1673ffffffffffffffffffffffffffffffffffffffff16815260200160098201548152602001600a8201548152602001600b8201548152602001600c820160009054906101000a900460ff166002811115610c0057fe5b6002811115610c0b57fe5b8152602001600c820160019054906101000a900460ff166001811115610c2d57fe5b6001811115610c3857fe5b815250509050806101600151915050919050565b6000806000610c5961215a565b600260006001600088815260200190815260200160002060009054906101000a900473ffffffffffffffffffffffffffffffffffffffff1673ffffffffffffffffffffffffffffffffffffffff1673ffffffffffffffffffffffffffffffffffffffff1681526020019081526020016000206000868152602001908152602001600020604051806101c001604052908160008201548152602001600182018054600181600116156101000203166002900480601f016020809104026020016040519081016040528092919081815260200182805460018160011615610100020316600290048015610d8b5780601f10610d6057610100808354040283529160200191610d8b565b820191906000526020600020905b815481529060010190602001808311610d6e57829003601f168201915b50505050508152602001600282018054600181600116156101000203166002900480601f016020809104026020016040519081016040528092919081815260200182805460018160011615610100020316600290048015610e2d5780601f10610e0257610100808354040283529160200191610e2d565b820191906000526020600020905b815481529060010190602001808311610e1057829003601f168201915b50505050508152602001600382018054600181600116156101000203166002900480601f016020809104026020016040519081016040528092919081815260200182805460018160011615610100020316600290048015610ecf5780601f10610ea457610100808354040283529160200191610ecf565b820191906000526020600020905b815481529060010190602001808311610eb257829003601f168201915b50505050508152602001600482018054600181600116156101000203166002900480601f016020809104026020016040519081016040528092919081815260200182805460018160011615610100020316600290048015610f715780601f10610f4657610100808354040283529160200191610f71565b820191906000526020600020905b815481529060010190602001808311610f5457829003601f168201915b505050505081526020016005820154815260200160068201548152602001600782015481526020016008820160009054906101000a900473ffffffffffffffffffffffffffffffffffffffff1673ffffffffffffffffffffffffffffffffffffffff1673ffffffffffffffffffffffffffffffffffffffff16815260200160098201548152602001600a8201548152602001600b8201548152602001600c820160009054906101000a900460ff16600281111561102a57fe5b600281111561103557fe5b8152602001600c820160019054906101000a900460ff16600181111561105757fe5b600181111561106257fe5b815250509050806101000151816101200151826101400151829250935093509350509193909250565b8284106110e3576040517f08c379a00000000000000000000000000000000000000000000000000000000081526004018080602001828103825260378152602001806122db6037913960400191505060405180910390fd5b600160008082825401925050819055506110fb61215a565b604051806101c0016040528060005481526020018a8152602001898152602001888152602001878152602001868152602001858152602001848152602001600073ffffffffffffffffffffffffffffffffffffffff1681526020016000815260200160008152602001600081526020016000600281111561117857fe5b815260200183600181111561118957fe5b600181111561119457fe5b815250905080600260003373ffffffffffffffffffffffffffffffffffffffff1673ffffffffffffffffffffffffffffffffffffffff1681526020019081526020016000206000805481526020019081526020016000206000820151816000015560208201518160010190805190602001906112119291906121f5565b50604082015181600201908051906020019061122e9291906121f5565b50606082015181600301908051906020019061124b9291906121f5565b5060808201518160040190805190602001906112689291906121f5565b5060a0820151816005015560c0820151816006015560e082015181600701556101008201518160080160006101000a81548173ffffffffffffffffffffffffffffffffffffffff021916908373ffffffffffffffffffffffffffffffffffffffff160217905550610120820151816009015561014082015181600a015561016082015181600b015561018082015181600c0160006101000a81548160ff0219169083600281111561131557fe5b02179055506101a082015181600c0160016101000a81548160ff0219169083600181111561133f57fe5b021790555090505033600160008054815260200190815260200160002060006101000a81548173ffffffffffffffffffffffffffffffffffffffff021916908373ffffffffffffffffffffffffffffffffffffffff160217905550505050505050505050565b600060608060608060008060008060006113bd61215a565b60026000600160008f815260200190815260200160002060009054906101000a900473ffffffffffffffffffffffffffffffffffffffff1673ffffffffffffffffffffffffffffffffffffffff1673ffffffffffffffffffffffffffffffffffffffff16815260200190815260200160002060008d8152602001908152602001600020604051806101c001604052908160008201548152602001600182018054600181600116156101000203166002900480601f0160208091040260200160405190810160405280929190818152602001828054600181600116156101000203166002900480156114ef5780601f106114c4576101008083540402835291602001916114ef565b820191906000526020600020905b8154815290600101906020018083116114d257829003601f168201915b50505050508152602001600282018054600181600116156101000203166002900480601f0160208091040260200160405190810160405280929190818152602001828054600181600116156101000203166002900480156115915780601f1061156657610100808354040283529160200191611591565b820191906000526020600020905b81548152906001019060200180831161157457829003601f168201915b50505050508152602001600382018054600181600116156101000203166002900480601f0160208091040260200160405190810160405280929190818152602001828054600181600116156101000203166002900480156116335780601f1061160857610100808354040283529160200191611633565b820191906000526020600020905b81548152906001019060200180831161161657829003601f168201915b50505050508152602001600482018054600181600116156101000203166002900480601f0160208091040260200160405190810160405280929190818152602001828054600181600116156101000203166002900480156116d55780601f106116aa576101008083540402835291602001916116d5565b820191906000526020600020905b8154815290600101906020018083116116b857829003601f168201915b505050505081526020016005820154815260200160068201548152602001600782015481526020016008820160009054906101000a900473ffffffffffffffffffffffffffffffffffffffff1673ffffffffffffffffffffffffffffffffffffffff1673ffffffffffffffffffffffffffffffffffffffff16815260200160098201548152602001600a8201548152602001600b8201548152602001600c820160009054906101000a900460ff16600281111561178e57fe5b600281111561179957fe5b8152602001600c820160019054906101000a900460ff1660018111156117bb57fe5b60018111156117c657fe5b815250509050806000015181602001518260400151836060015184608001518560a001518660c001518760e00151886101800151896101a001518898508797508696508595509a509a509a509a509a509a509a509a509a509a50509193959799509193959799565b60005481565b600080600260006001600087815260200190815260200160002060009054906101000a900473ffffffffffffffffffffffffffffffffffffffff1673ffffffffffffffffffffffffffffffffffffffff1673ffffffffffffffffffffffffffffffffffffffff1681526020019081526020016000206000858152602001908152602001600020905080600501544210156118cd57600080fd5b80600601544211156118de57600080fd5b806007015434116118ee57600080fd5b600081600d0160003373ffffffffffffffffffffffffffffffffffffffff1673ffffffffffffffffffffffffffffffffffffffff168152602001908152602001600020600085815260200190815260200160002060000160009054906101000a900473ffffffffffffffffffffffffffffffffffffffff1673ffffffffffffffffffffffffffffffffffffffff161461198657600080fd5b60405180608001604052803373ffffffffffffffffffffffffffffffffffffffff1681526020018581526020013481526020016000151581525081600d0160003373ffffffffffffffffffffffffffffffffffffffff1673ffffffffffffffffffffffffffffffffffffffff168152602001908152602001600020600085815260200190815260200160002060008201518160000160006101000a81548173ffffffffffffffffffffffffffffffffffffffff021916908373ffffffffffffffffffffffffffffffffffffffff160217905550602082015181600101556040820151816002015560608201518160030160006101000a81548160ff021916908315150217905550905050600181600b0160008282540192505081905550600191505092915050565b6000600260006001600087815260200190815260200160002060009054906101000a900473ffffffffffffffffffffffffffffffffffffffff1673ffffffffffffffffffffffffffffffffffffffff1673ffffffffffffffffffffffffffffffffffffffff168152602001908152602001600020600085815260200190815260200160002090508060060154421015611b4657600080fd5b600083836040516020018083805190602001908083835b60208310611b805780518252602082019150602081019050602083039250611b5d565b6001836020036101000a03801982511681845116808217855250505050505090500182805190602001908083835b60208310611bd15780518252602082019150602081019050602083039250611bae565b6001836020036101000a03801982511681845116808217855250505050505090500192505050604051602081830303815290604052805190602001209050611c17612275565b82600d0160003373ffffffffffffffffffffffffffffffffffffffff1673ffffffffffffffffffffffffffffffffffffffff16815260200190815260200160002060008381526020019081526020016000206040518060800160405290816000820160009054906101000a900473ffffffffffffffffffffffffffffffffffffffff1673ffffffffffffffffffffffffffffffffffffffff1673ffffffffffffffffffffffffffffffffffffffff16815260200160018201548152602001600282015481526020016003820160009054906101000a900460ff1615151515815250509050600073ffffffffffffffffffffffffffffffffffffffff16816000015173ffffffffffffffffffffffffffffffffffffffff1611611da1576040517f08c379a00000000000000000000000000000000000000000000000000000000081526004018080602001828103825260118152602001807f426964646572206e6f742065786973742e00000000000000000000000000000081525060200191505060405180910390fd5b600015158160600151151514611e1f576040517f08c379a000000000000000000000000000000000000000000000000000000000815260040180806020018281038252600f8152602001807f4269642069732072657665616c6564000000000000000000000000000000000081525060200191505060405180910390fd5b600080611e2b876120dc565b90508083604001511015611e455782604001519150612013565b600073ffffffffffffffffffffffffffffffffffffffff168560080160009054906101000a900473ffffffffffffffffffffffffffffffffffffffff1673ffffffffffffffffffffffffffffffffffffffff161415611f0557338560080160006101000a81548173ffffffffffffffffffffffffffffffffffffffff021916908373ffffffffffffffffffffffffffffffffffffffff160217905550808560090181905550846007015485600a0181905550808360400151039150612012565b8460090154811115611fe757846009015485600a01819055508460080160009054906101000a900473ffffffffffffffffffffffffffffffffffffffff1673ffffffffffffffffffffffffffffffffffffffff166108fc86600901549081150290604051600060405180830381858888f19350505050158015611f8c573d6000803e3d6000fd5b50808560090181905550338560080160006101000a81548173ffffffffffffffffffffffffffffffffffffffff021916908373ffffffffffffffffffffffffffffffffffffffff160217905550808360400151039150612011565b84600a0154811115612008578085600a018190555082604001519150612010565b826040015191505b5b5b5b6000821115612064573373ffffffffffffffffffffffffffffffffffffffff166108fc839081150290604051600060405180830381858888f19350505050158015612062573d6000803e3d6000fd5b505b600185600d0160003373ffffffffffffffffffffffffffffffffffffffff1673ffffffffffffffffffffffffffffffffffffffff168152602001908152602001600020600086815260200190815260200160002060030160006101000a81548160ff0219169083151502179055505050505050505050565b60006060829050600080905060008090505b825181101561214f57600083828151811061210557fe5b602001015160f81c60f81b60f81c905060308160ff161015801561212d575060398160ff1611155b15612141576030810360ff16600a84020192505b5080806001019150506120ee565b508092505050919050565b604051806101c001604052806000815260200160608152602001606081526020016060815260200160608152602001600081526020016000815260200160008152602001600073ffffffffffffffffffffffffffffffffffffffff168152602001600081526020016000815260200160008152602001600060028111156121dd57fe5b8152602001600060018111156121ef57fe5b81525090565b828054600181600116156101000203166002900490600052602060002090601f016020900481019282601f1061223657805160ff1916838001178555612264565b82800160010185558215612264579182015b82811115612263578251825591602001919060010190612248565b5b50905061227191906122b5565b5090565b6040518060800160405280600073ffffffffffffffffffffffffffffffffffffffff16815260200160008152602001600081526020016000151581525090565b6122d791905b808211156122d35760008160009055506001016122bb565b5090565b9056fe61756374696f6e537461727454696d652073686f75626c65206265206561726c696572207468616e2061756374696f6e456e6454696d65a265627a7a723158201c6040a9090537d36ef30a0ff0538b808d6b1b3c2a72ed3ba60e0730318d291c64736f6c63430005100032",
  "source": "// SPDX-License-Identifier: GPL-3.0\r\n\r\npragma solidity ^0.5.0;\r\n\r\n\r\n//receiver 0x0c1f1f7b6518216d7414bfeacfb15352f232e874\r\n\r\n\r\n/**\r\n *\r\n */\r\ncontract ProductStore{\r\n    \r\n    //\r\n    enum ProductStatus{Open,Sold,Unsold}\r\n\r\n    //\r\n    enum ProductCondition{New,Used}\r\n    \r\n    //\r\n    uint public productIndex;\r\n\r\n    //\r\n    mapping(uint => address) productIdInStore;\r\n\r\n    //\r\n    mapping(address => mapping(uint => Product)) stores;\r\n    \r\n    \r\n    //\r\n   struct Product {\r\n        uint id; //ID\r\n        string name; //\r\n        string category; //\r\n        string imageLink; //\r\n        string descLink; //\r\n        uint auctionStartTime; //\r\n        uint auctionEndTime; //\r\n        uint startPrice; //\r\n        address payable  highestBidder; \r\n        uint highestBid;\r\n        uint secondHighestBid;\r\n        uint totalBids;\r\n        ProductStatus status; //\r\n        ProductCondition condition; //\r\n        mapping (address => mapping(bytes32=>Bid)) bids;\r\n        \r\n    }\r\n    \r\n   \r\n\r\n    constructor()public{\r\n        productIndex = 0;\r\n    }\r\n    \r\n    //\r\n    struct Bid{\r\n        address bidder;//\r\n        uint productID;//ID\r\n        uint value;//ETH\r\n        bool revealed;//\r\n    }\r\n\r\n    //\r\n    function addProductToStore(string memory _name, string memory _category, string memory _imageLink, string memory _descLink, uint _auctionStartTime,uint _auctionEndTime, uint _startPrice, uint _productCondition) public{\r\n        \r\n        require(_auctionStartTime < _auctionEndTime,\"auctionStartTime shouble be earlier than auctionEndTime\");\r\n        productIndex += 1;\r\n        Product memory product = Product(\r\n            productIndex, \r\n            _name, \r\n            _category,\r\n            _imageLink, \r\n            _descLink, \r\n            _auctionStartTime, \r\n            _auctionEndTime,\r\n            _startPrice, \r\n            address(0),\r\n            0,\r\n            0,\r\n            0,\r\n            ProductStatus.Open, \r\n            ProductCondition(_productCondition)\r\n            );\r\n            stores[msg.sender][productIndex]=product;\r\n            productIdInStore[productIndex]=msg.sender;\r\n    }\r\n\r\n    //\r\n    function getProduct(uint _productId)view public returns(uint, string memory, string memory, string memory, string memory, uint, uint, uint,  ProductStatus , ProductCondition ) {\r\n        Product memory product = stores[productIdInStore[_productId]][_productId];\r\n        return (product.id, product.name, product.category, product.imageLink, product.descLink, product.auctionStartTime,product.auctionEndTime, product.startPrice, product.status, product.condition);\r\n    }\r\n\r\n    //\r\n    function bid(uint _productId,bytes32 _bid)payable public returns(bool){\r\n        Product storage product = stores[productIdInStore[_productId]][_productId];\r\n        require(block.timestamp >=product.auctionStartTime);\r\n        require(block.timestamp <=product.auctionEndTime);\r\n        require(msg.value > product.startPrice);\r\n        require(uint(product.bids[msg.sender][_bid].bidder)==0);\r\n        product.bids[msg.sender][_bid] = Bid(msg.sender,_productId,msg.value,false);\r\n        product.totalBids +=1;\r\n        return true;\r\n    }\r\n    \r\n    //\r\n    function revealBid(uint  _productId,string memory _amount,string memory _secret)public{\r\n        Product storage product = stores[productIdInStore[_productId]][_productId];\r\n        require(block.timestamp >=product.auctionEndTime);\r\n        bytes32 sealedBid = keccak256(abi.encodePacked(_amount,_secret));\r\n        Bid memory bidInfo = product.bids[msg.sender][sealedBid];\r\n        require(bidInfo.bidder>address(0),\"Bidder not exist.\");\r\n        require(bidInfo.revealed==false,\"Bid is revealed\");\r\n        uint refund;\r\n        uint amount = stringToUint(_amount);\r\n        //ether\r\n        if(bidInfo.value < amount){\r\n            refund = bidInfo.value;\r\n        }else{\r\n        //\r\n            if(product.highestBidder==address(0)){\r\n                product.highestBidder = msg.sender;\r\n                product.highestBid = amount;\r\n                product.secondHighestBid = product.startPrice;\r\n                refund = bidInfo.value - amount;\r\n            }else{\r\n                if(amount >product.highestBid){\r\n                    //\r\n                    product.secondHighestBid = product.highestBid;\r\n                    product.highestBidder.transfer(product.highestBid);\r\n                    product.highestBid = amount;\r\n                    product.highestBidder = msg.sender;\r\n                    refund = bidInfo.value - amount;\r\n                }else if(amount>product.secondHighestBid){\r\n                    //\r\n                    product.secondHighestBid = amount;\r\n                    refund = bidInfo.value;\r\n                    \r\n                }else{\r\n                    //\r\n                    refund =  bidInfo.value;              \r\n                }\r\n            }\r\n        }\r\n        if(refund >0){\r\n            msg.sender.transfer(refund);\r\n        }\r\n        product.bids[msg.sender][sealedBid].revealed = true;\r\n    }\r\n    //uint\r\n    function stringToUint(string memory s)private pure returns(uint){\r\n        bytes memory b = bytes(s);\r\n        uint result=0;\r\n        for(uint i = 0;i < b.length; i++){\r\n\r\n            //0-9\r\n            uint8 uint_b = uint8(b[i]);\r\n            if(uint_b >= 48 && uint_b <= 57){\r\n                result = result * 10 + (uint_b-48);\r\n\r\n            }\r\n        }\r\n        return result;\r\n    }\r\n    //\r\n    function highetBidderInfo(uint _productId)public view returns(address,uint,uint){\r\n        Product memory product = stores[productIdInStore[_productId]][_productId];\r\n        return (product.highestBidder,product.highestBid,product.secondHighestBid);\r\n    }\r\n    //\r\n    function totalBids(uint _productId)public view returns(uint){\r\n        Product memory product = stores[productIdInStore[_productId]][_productId];\r\n        return product.totalBids;\r\n    }\r\n\r\n}\r\n\r\n//ProductStore.deployed().then(function(i) {i.getProduct.call(1).then(function(f) {console.log(f)})})\r\n\r\n//ProductStore.deployed().then(function(i) {i.addProductToStore('iphone 6', 'Cell Phones & Accessories', 'imagelink', 'desclink', current_time, current_time + 200, amt_1, 0).then(function(f) {console.log(f)})});",
  "sourcePath": "D:\\ComputerScience\\ethdev\\decentralised-auction\\auction\\contracts\\ProductStore.sol",
  "compiler": {
    "name": "solc",
    "version": "0.5.16+commit.9c3226ce.Emscripten.clang"
  },
  "schemaVersion": "3.4.2",
  "updatedAt": "2021-08-15T12:52:07.389Z",
  "devdoc": {
    "methods": {}
  },
  "userdoc": {
    "methods": {},
    "notice": ""
  }
}